:020000040800F2
:10000000802300207D400008FB120008FD1200083C
:10001000FF1200080113000803130008000000008D
:1000200000000000000000000000000005130008B0
:100030000713000800000000091300080B13000854
:100040005D41000861410008654100086941000800
:100050006D410008714100087541000879410008B0
:100060007D41000881410008854100088941000860
:100070008D41000891410008954100089941000810
:100080009D410008A141000887210008A541000802
:10009000A9410008AD410008B1410008B541000880
:1000A000B94100086B210008BD410008C1410008AA
:1000B000C5410008C9410008CD410008D1410008F0
:1000C000D5410008D9410008DD410008E1410008A0
:1000D000E54100085720000881200008E941000898
:1000E000AF210008ED410008F1410008F54100088A
:1000F000F9410008FD4100080142000805420008DE
:10010000094200080D42000811420008154200088B
:10011000194200081D42000821420008CF200008B3
:1001200025420008294200082D42000831420008FB
:1001300035420008394200083D42000841420008AB
:1001400045420008494200084D420008514200085B
:1001500055420008594200085D420008614200080B
:1001600065420008694200086D42000871420008BB
:1001700075420008794200087D420008814200086B
:1001800085420008894200082DE9F04F80460FF2B1
:100190001C60A5B017461D46D0E90023CDE9122307
:1001A000002004910D900DF1500A6FF0004900E01D
:1001B000E7190020ADF8020012AB4FF0FF323946CC
:1001C0000DF1020001F089F80446012C04DA3878B8
:1001D000441EA441E443E40FBDF8020025280CBFEF
:1001E000A4F1010BA346BBF1010F0EDB3E4616F84E
:1001F000011B0498C0470028049000F0D2820D989B
:10020000401CBBF1010B0D90F1D1BDF80200252877
:1002100007D100200790089009900A900B900C904D
:1002200005E00028C4D10D98BDE240F0010017F8A8
:10023000011F2029F9D023290DD02B2904D02D29E5
:1002400006D030290AD00CE040F0020080B2EEE780
:1002500040F00400FAE740F00800F7E740F0100033
:10026000F4E72A290ED12968296051F8042B296066
:10027000002A0F9204D5514240F004000F9180B241
:100280007F1C11E000210F9109E00F99494505D02D
:1002900001EB810302EB430130390F917F1C3A7867
:1002A000A2F130010A29F0D339782E2903D04FF07A
:1002B000FF310E911DE017F8011F2A2907D1296887
:1002C00029607F1C51F8042B29600E9211E0002157
:1002D0000E9109E00E99494505D001EB810302EB2F
:1002E000430130390E917F1C3A78A2F130010A297E
:1002F000F0D3ADF840000FF2BC40397801F006F8B9
:1003000008B117F8010B8DF842009DF842006828EB
:1003100002BF39786829622005D06C2804BF38787C
:100320006C2803D171208DF842007F1C14A8069020
:1003300017F8014BB4F125002AD01C3800F0CB800F
:10034000001F022840F2C780133800F0EC80093803
:1003500000F0C180801E00F05381401E00F02C810F
:10036000401E022840F2B780001F00F02581401F88
:1003700000F08280401E00F0D680401E2CD0C01EAF
:100380000BD0801E00F0CF80C01E00F0CC805AE160
:1003900025208DF8500001205EE19DF842006C2878
:1003A0002868286014D050F8046B286005960E9CCD
:1003B000002C04D5304600F0B9FF044606E0224682
:1003C0000021304600F0CEFF00B1841B089444E1C8
:1003D00050F8042B28602FE1296829603C2451F84B
:1003E000040B29600021CDE9020114A80590DDE984
:1003F0000201069E11B908B90E9AB2B10206120F97
:10040000A0EB02123032D2B2631E3A2AA8BF2732C2
:1004100000099A5540EA0170090908BF00281C46E6
:1004200003D0059AA3199A42E8D3A0190590C4F104
:100430003C010E980891814209DA401A0A904FF661
:10044000EF71BDF840000840ADF8400005E100281C
:1004500040F103819DF8400000F01400102840F0A6
:10046000FC800F98079A801A0A9A801A441A012C65
:10047000C0F2F3800A94F0E09DF8420062281AD09E
:10048000682806D06A280CD06C281CD0712808D0A7
:1004900019E02868286050F8041B28600D9808802F
:1004A000DBE02868286050F8042B28600D98C117FD
:1004B000C2E90001D1E02868286050F8041B2860D8
:1004C0000D980870C9E02868286050F8041B28605F
:1004D0000D980860C1E02868C01D20F007022A605E
:1004E000D2E9000108322A60CDE90201002902D5D3
:1004F00007982D210AE0BDF84000810702D5079832
:100500002B2103E0C00705D50798202100F80A1029
:10051000401C079014A8079908180590214602A8C6
:1005200000F090FB99E09DF842006C280DD07128F6
:1005300018BF6A2809D12868C01D20F007022A6068
:10054000D2E9000108322A6005E02968296051F8E3
:10055000040B29600021CDE902019DF842006828C2
:1005600003D1DDE9020180B20BE0622803D1DDE9AD
:100570000201C0B205E0742818BF7A2804D1DDE971
:1005800002010021CDE902019DF8400000072ED5AF
:10059000DDE90201002908BF002828D044F020002E
:1005A000782824D10798302100F80A10401C411CFB
:1005B000079100F80A401AE09DF84200294600F031
:1005C000FDF8CDE90201002902DA07982D210AE0A1
:1005D000BDF84000810702D507982B2103E0C00732
:1005E00005D50798202100F80A10401C079014A890
:1005F000079908180590214602A800F09FFA2CE000
:100600009DF842006C2809D00120079028682860D6
:1006100050F8041B28608DF850101EE028682860F0
:1006200001AA50F8041B2860ADF804100020ADF8B2
:1006300006004FF0FF300E9002A9404600F0F5F89A
:1006400000280AD5ADE025208DF850000120079044
:100650001CB18AF80140022007900F980799401AB0
:100660000A99401A0899401A0B99401A0999401A98
:100670000C99441A9DF84000400710D420208DF8B2
:100680000000002609E001236A4602A9404600F066
:1006900000FE002840F08580761CA642F3DB079E12
:1006A0000DF1500B0AE01BF8011B0498C04700280D
:1006B000049076D00D98401C0D90761E002EF2D13D
:1006C00030208DF800004FF0000B0A9E09E0012356
:1006D0006A4602A9404600F0DCFD002861D10BF11A
:1006E000010BB345F3DB089EDDF814B00AE01BF8FC
:1006F000011B0498C0470028049052D00D98401C5C
:100700000D90761E002EF2D130208DF800004FF0B3
:10071000000B0B9E09E001236A4602A9404600F047
:10072000B8FD00283DD10BF1010BB345F3DB059873
:100730000899099E01EB000B09E01BF8011B0498C6
:10074000C047049068B30D98401C0D90761E002E93
:10075000F3D130208DF800004FF0000B0C9E08E024
:1007600001236A4602A9404600F093FDC8B90BF187
:10077000010BB345F4DB9DF8400040077FF519AD50
:1007800020208DF80000002600E0761CA642BFF66F
:1007900010AD01236A4602A9404600F07AFD002808
:1007A000F3D04FF0FF3025B0BDE8F08F000000001F
:1007B00000000000686A6C747A4C0000622826D041
:1007C00068281DD06A2808D06C2827D0712804D04A
:1007D000742823D07A280CD020E00868C01D20F0AF
:1007E00007000860D0E90023083008601946104669
:1007F00070470A680A6052F8040B0A6000217047CB
:100800000A680A6052F8040B0A6000B20BE00A683A
:100810000A6052F8040B0A6040B204E00A680A60F9
:1008200052F8040B0A60C11770472DE9F44F0D46CA
:1008300094B0D5F830B0BBF1000F804648BF6FF0E0
:10084000004B00F0BBFD696B401801900FF6702063
:10085000D0E90023CDE9022395F83800400702D4FF
:100860000198412806D240200DF1100A01904FF066
:10087000000909E000F0A8FD5FEA000AF7D14FF097
:10088000FF3058E1ABEB040BBBF1010FC0F2CD80A0
:100890001498018802AA0DF1010000F0EDFD002876
:1008A000044600F1D5801498008810B9641E00F148
:1008B000CF80A345C0F2B98068690199221891429E
:1008C00080F0A180296AC5F834904042401AA96995
:1008D000401A696A401AE969401AA96AA0EB01093D
:1008E00095F83800400710D420208DF8000000262D
:1008F00009E001236A462946404600F0CAFC002868
:1009000040F0A680761C4E45F3DB6E6957460BE03F
:1009100017F8011BA868C0470028A86000F098805D
:10092000E86A401CE862761E002EF1D130208DF876
:10093000000000272E6A09E001236A462946404646
:1009400000F0A7FC002840F083807F1CB742F3DB57
:10095000AE69EF680AE017F8011BA868C0470028D5
:10096000A86075D0E86A401CE862761E002EF2D1BD
:1009700030208DF8000000276E6A08E001236A46E7
:100980002946404600F085FC002861D17F1CB74213
:10099000F4DBE868A969EE690F180AE017F8011B93
:1009A000A868C0470028A86052D0E86A401CE862E6
:1009B000761E002EF2D130208DF800000027AE6A9E
:1009C00008E001236A462946404600F062FC002800
:1009D0003ED17F1CB742F4DB95F8380040070ED5B6
:1009E00020208DF80000002607E001236A462946F2
:1009F000404600F04EFC58BB761C4E45F5DB4FF0F0
:100A00000009C5F81490224668690DF101015044AF
:100A100000F040FD6869201868611498801C1490EB
:100A2000801E008800287FF42DAF686B6969401A2A
:100A3000296A401AA969401A696A401AE969401A84
:100A4000A96A471A95F83800400710D400240CE032
:100A50004FF0FF3968E0A8682021C0470028A8604F
:100A6000F6D0E86A401CE862641CBC42F3DB6B69A8
:100A700052462946404600F00CFC0028E8D12C6A7A
:100A8000002609E0A8683021C0470028A860DFD010
:100A9000E86A401CE862761CA642F3DBAB69EA68B0
:100AA0002946404600F0F5FB0028D1D16C6A0026AB
:100AB00009E0A8683021C0470028A860C8D0E86ACB
:100AC000401CE862761CA642F3DBE868A969EB6982
:100AD0000A182946404600F0DCFB0028B8D1AC6A71
:100AE000002609E0A8683021C0470028A860AFD0E0
:100AF000E86A401CE862761CA642F3DB95F83800F1
:100B000040070DD5002409E0A8682021C04700282F
:100B1000A8609DD0E86A401CE862641CBC42F3DB1C
:100B2000C5F81490C5F8349004A882451CBF5046FF
:100B300000F0ECFC484615B0BDE8F08F2DE9FA4E08
:100B400005460A462F696F2A08BF082405D041F0E0
:100B50002000782814BF0A2410243C26D5E900017F
:100B6000642A18BF692A81468A4605D1002903DA1A
:100B7000D9F100096AEB4A0ABAF1000F08BFB9F1CE
:100B8000000F0CD1286B50B9082C36D195F83800DD
:100B9000000732D530203B2687F83B002DE0E317D5
:100BA00048465146224600F0F1FCA4FB0023A9EB85
:100BB00002023032D2B2A6F1010B3A2A5E4603DBC2
:100BC0009DF80030513B9A180BF8072081465FEAE8
:100BD000010A08BFB9F1000F03D0E868F119884293
:100BE000DDD3082C09D195F83800000705D5F05D54
:100BF000302802D0761E3020F055C6F13C00A861A6
:100C0000F119E960296B884208DA081A28624FF660
:100C1000EF71288F08402887BDE8F38E00290ED594
:100C200095F8381001F01401102908D1696B6A6930
:100C3000891A2A6A891A0E1A012EA8BF2E62BDE8E7
:100C4000F38E00002DE9F24F04468EB0D4E9000186
:100C5000CDE9020104AF9DF8380040F0200BBBF154
:100C6000610F0AD0206B002848BF062004D408BFBB
:100C7000BBF1670F01D1012020636168C1F30A5005
:100C800040F2FF7290421CD1080304BF2068002884
:100C900009D10320A0619DF8380061381A2836D3A5
:100CA0000FF2306108E00320A0619DF83800613840
:100CB0001A2829D30FF21461E068032200F0EAFB3E
:100CC000BEE1012816DA204600F0D7FC012811DB2E
:100CD00000250020BBF1610F20D1E168302201F82E
:100CE000012B4A1CE2609DF83820612A0CBF782253
:100CF00058220FE0626840F2FE3161F31E52451A3D
:100D000062604FF0FF30E5E70FF2BC51D4E70FF21D
:100D1000C051D1E70A706169891C616110B9002670
:100D2000002584E1BBF1610F40F09780206B002823
:100D30004CBF2126461CD4E900ABDDE902010022AC
:100D4000002300F0BBFC36B23ABF8BF00040CDE987
:100D500002A0CDE902AB06F101082D1F8DF810208D
:100D60000DF1110700E0C71DB8F1010F33DBDDE91C
:100D700002010022002300F0B9FC2CD21C2102A8A1
:100D800000F0CCFCDDE9020100F052FDA8F10708FB
:100D9000B8F1010F814609DB00F076FD02460B46F3
:100DA000DDE9020100F088FDCDE90201F81D07210F
:100DB00005E009F00F0200F8012D4FEA2919B9F1F9
:100DC000010F01DB491EF4D5491E5CBF002200F86B
:100DD000012DF9D5C7E70DF11100391AB142B8BF9D
:100DE0000E4636B230000DF111072FD4884206DAD4
:100DF00004A9411849780829A8BF0F2100DA002169
:100E000004AA821800E0761E12F80139401E8B42B7
:100E1000F9D00F2904D104A941184A78521C4A700C
:100E2000002802D504AF761C2D1D36B2701E0DD4DD
:100E3000C1190A783032D2B23A2A03DB9DF8383031
:100E40003A3B9A18401E01F80129F2D5206B002880
:100E500040F1ED80701E2063E9E0DDE9020100222F
:100E6000002300F02BFC3CBF81F00041CDE90201E2
:100E70002DB247F2975068434B49DFF8309190FB11
:100E8000F1F52DB2C5F1070ABAF1010F90461CDB4E
:100E9000DDE902675FEACA7007D542464B46304635
:100EA000394600F0C9FD06460F46404649464246CF
:100EB0004B464FEA6A0A00F0BFFDBAF1000F8046C8
:100EC0008946E7D1CDE9026724E0CAF1000A00268D
:100ED000374F14E05FEACA7007D542464B463046AA
:100EE000394600F0A9FD06460F46404649464246AF
:100EF0004B4600F0A1FD4FEA6A0A80468946BAF1E6
:100F0000000FE7D1DDE9020132463B4600F066FE04
:100F1000CDE90201BBF1660F0CBF05F10A00062006
:100F2000216BDFF890904618142EA8BF13263020AE
:100F30008DF810000DF11107012E3DDBDDE90201F6
:100F400000F08CFC07F1080104220A23B0FBF3F344
:100F500003EB8307A0EB4700303001F8010C0A20B7
:100F6000B3FBF0F000EB8007A3EB47033033521ED6
:100F700001F8023DE9D1083E012E01F10807DBDB53
:100F8000DDE9020100F06AFC00F088FC02460B4635
:100F9000DDE9020100F090FC00224B4600F04CFD20
:100FA000CDE90201CAE700BFA0860100000024408D
:100FB0000000F03F84D797410DF11100381A0DF170
:100FC000110702E0401E6D1E7F1C39783029F9D0D0
:100FD000BBF1660F02D12DB2691C04E0BBF1650FB5
:100FE0000CBF01210021226B8E1836B2B042B8BF6F
:100FF000064636B231001AD4814204DAC85D35287B
:10100000A8BF392000DA3020CA19521E00E0761E2F
:1010100012F80139491E8342F9D0392802D1C85D3E
:10102000401CC855002902D57F1E761C6D1C2DB2B0
:101030009DF83810009533B23A46204600F003F888
:101040000FB0BDE8F08F2DE9F04786B006468A461E
:1010500090461D4600F00BFF012D406A376B90F85B
:10106000009002DA01250FF270284AF02000BDF945
:101070003840662808BF641C12D0672876D114F166
:10108000040F79DBBC4277DA96F83800641C00075D
:1010900002D4BD42B8BF2F4624B23F1B48BF002731
:1010A00024B2F068B169012C21DA4A1C30230B54B8
:1010B000012F03DA96F83810090702D502F80090DC
:1010C000521CB261E742B8BF7C4224B26142E719C8
:1010D0007162AF42B8BF3D46B3692DB2F5612A4691
:1010E0004146181800F0D6F9781BB062BAE008182B
:1010F000A54216DA2A46414600F0CCF9B1696918D2
:10110000601B012FB161706203DA96F838000007A6
:1011100005D5F06801F80090F069401CF061B762F5
:10112000A0E02246414600F0B5F9B06920182D1B19
:10113000012F03DA96F83810090703D5F16800F893
:101140000190401C2DB2B061AF42B8BF3D46F0687F
:10115000B3692DB22A4604EB0801181800F09AF979
:10116000B0692818B061781B70627BE0BAF1610F3A
:1011700014D14FF0700A16E0BD4204DA96F8381028
:10118000090758BF2F467F1E48BF0027BAF1670FD7
:1011900014BF4FF0450A4FF0650A04E0BAF1410F61
:1011A00008BF4FF0500AB169F0684A1CB261012FC4
:1011B00018F8013B0B5403DA96F83810090715D5D7
:1011C000531CB36102F80090012F0FDB6D1E2DB28E
:1011D000AF42B8BF3D462DB22A464146181800F02E
:1011E00059F9B0692818B061781B7062F068B1696C
:1011F0000918200081F800A004D42B20487001F1C8
:10120000020804E02D224A7001F102086442002520
:1012100002AF08E00A22684600F042FE019807F893
:10122000010B6D1C009C21B20129F3DA022D06DAB4
:101230004AF02000652804BF302008F8010B4DB9A2
:10124000302008F8010B07E06D1E02A8285C303042
:1012500008F8010B012DF7DAF068B1690818A8EB5E
:101260000000F06196F8380000F0140010280DD14D
:101270007069B1690818716A0818F1690818B16ACB
:101280000818716B8842BCBF081A306206B0BDE80E
:10129000F087F8B504460D4616461F46002004E0C8
:1012A000E86A401CE8627F1E002047B116F8011B67
:1012B000A868A0470028A860F2D14FF0FF30F2BD27
:1012C00000000000000000006E616E004E414E0004
:1012D000696E6600494E46003000F8B504460D467A
:1012E00016461F4600F0E4FD3B463246294620469E
:1012F00001B0BDE8F04000F0F2BD7047FEE7FEE748
:10130000FEE7FEE770477047704770470278C9B242
:101310008A421AB11CBF10F8012FF9E718BF00204C
:1013200070470268531C03601170704700F101039D
:10133000810704D010F8011B89B18107FAD1026836
:10134000B2F10131914311F0803F04BF50F8042FF6
:10135000F6E710F8011B11B110F8011BFBE7C01AEA
:1013600070470000C9B2830706D0521E22D310F87E
:10137000013B9942F7D11FE0083A13D302F104026E
:1013800041EA012141EA014150F8043B121F21BF0B
:101390004B40A3F1013C2CEA030C1CF0803FF3D03E
:1013A000C9B2001F083210F8013B521E28BF91EA53
:1013B000030FF8D818BF0120401E704780B500F019
:1013C00077FD012002BD000070B5054605F10F0054
:1013D000C408C046C046E400A54232D2082C04D25C
:1013E000082402E0083000F091F822480268110059
:1013F0000CD1011D0A6802B31368A34238BF111D46
:10140000F8D310E01D68A5420DD2191D0B68002B02
:10141000F8D11268011D00E0191D0B6893420CD031
:101420001D68A542F8D361B10D682A68A2F10803CE
:10143000A3420AD26A680A600FE000F073FD002838
:10144000D0D1C046C046002070BD63190B60121B8E
:101450006E685E600B681A602C60096800291DBF09
:101460004A68002A091D00210160C046C04605F1F6
:10147000080070BD5003002070B504460D461646A6
:1014800000F016FD324629462046BDE8704000F0C7
:1014900019BD000062B38B0708D0521E11F8013B42
:1014A00000F8013B00F024808B07F6D1830740F061
:1014B000208000BF103A07D330B4B1E83810103A9A
:1014C000A0E83810F9D230BC530724BFB1E80810A7
:1014D000A0E8081044BF51F8043B40F8043BD20791
:1014E00024BF31F8022B20F8022B44BF0B78037085
:1014F0007047083A07D3B1E80810083A40F8043BAF
:1015000040F804CBF7D25307E4E7000000B9704776
:1015100038B5A0F108042068082833D310F0070F6D
:1015200030D1C046C0461848416809B18C4203D248
:101530006160446017E019464B680BB1A342FAD3CF
:101540000B685D18AC421BD3A54204D12268D218A7
:101550000A600C4607E04A681AB123681B199A42D0
:101560000ED362604C60616851B1226813198B42DE
:1015700006D1002303600868801820604868606016
:10158000C046C04631BD0000500300201B4213D1AD
:10159000094236D12AB18446B0FBF2F002FB10C2F8
:1015A000704700F0D5BCFCD30022002370470B002D
:1015B0000200002100207047904271EB030CF6D32B
:1015C00070B5B1FA81F4B3FA83F52C1BA340C4F1D2
:1015D000200532FA05F63343A2405FF00046E640AC
:1015E00002E05B085FEA3202841A71EB030524BF54
:1015F000204629467641F4D302000B00300000213A
:1016000070BD012ACFD970B5140C20D0B1FA81F485
:10161000B2FA82F5C4F120046419B4F12006D6D3DD
:10162000B2405FF00044F440002502E052085FEA57
:101630003303C61A71EB020E24BF30467146644173
:101640006D41F3D302000B002000290070BD0C4651
:10165000B1FBF2F102FB11452D0445EA1045B5FB43
:10166000F2F402FB145580B240EA0545B5FBF2F0F6
:1016700002FB105240EA044070BD30B4436803F0EE
:10168000004201211B031B0B436004BF0368002BB6
:1016900008D10DE00368DD0F45EA440444605B00B7
:1016A0000360491E4468E302F4D523031B0B436027
:1016B00043681A434260084630BC70474FF4001C30
:1016C0001CEB410F94BF1CEB430F09E041EA030CF4
:1016D00050EA4C0C52EA0C0C03D2994208BF9042DB
:1016E000704714BF8B428242704700004FF4001CC9
:1016F0001CEB410F94BF1CEB430F09E041EA030CC4
:1017000050EA4C0C52EA0C0C03D28B4208BF8242C6
:10171000704714BF994290427047000070B504466C
:101720000D466068C0F30A5040F2FF71884207D14D
:101730006068000304BF2068002817D0022070BD35
:1017400020B92046FFF799FF012866DA012D0FDB4B
:1017500040F2FF71091A8D420AD3606800284CBF1D
:101760009FED2F0B9FED300B84ED000B012070BD22
:101770004142A942616806DA6FF31E51401941EAFD
:101780000050606040E0401E63684519012205F189
:10179000350062F31F53352801F00041636003D325
:1017A00061600020206070BD002015F11F0F04DA79
:1017B000206823600022203562606A4212D0401EF9
:1017C00025688041C2F12003C0439D4045EAD070A6
:1017D00025686668D54006FA03F32B4323606368E7
:1017E000D340636062680A43B0F1004F626003D87F
:1017F0000DD12078C0070AD52068401C20602068E1
:1018000028B96068401C60604FF0FF3070BD6068B0
:10181000884204BF20680028F6D1002070BD00BFB8
:10182000000000000000F0FF000000000000F07F5A
:10183000F446400D40EAC120490006D200F014F8F9
:10184000004248BF6FF00040604700F00DF84FF0D5
:10185000004188428CBF084640426047400D40EA44
:10186000C120490080F00D8040F00040490DA1F5F5
:101870008061491C05D4D1F11F0154BFC840C01775
:1018800070474FF000007047010040F10980F446B6
:10189000404200F005F851F000416047010000BFF0
:1018A00009D0B0FA80F18840C91CC1F584610905EE
:1018B00001EBD02140057047F0B44FF0004591EAAC
:1018C000030F44BF6B4000F045BB00BF841A71EBAF
:1018D000030604D26E40001BB141121973414FF44C
:1018E000001C1CEB410F34BF7CEB430684E00C0D65
:1018F000A4EB1356362E7DDC012E43DC45EAC323D0
:1019000043EA525312BFD20292025B08240545EA11
:10191000C12141EA5051D2EBC020994125D407D1D1
:10192000B0FA80F610FA06F164D00020203608E004
:10193000B1FA81F6B140C6F1200220FA02F2114359
:10194000B0404FEAF474B4EB465434F001064FEA69
:1019500074040AD8D6F50016760D04F00044F04061
:1019600061FA06F25040F1404840C00A40EA415056
:1019700021F0004128BF5FEA500550F1000044EB20
:10198000D12137E045EAC323DB0A45EAC121C90A70
:10199000B6F120050EDD42EA0242120CC5F1200626
:1019A00003FA06F6EB4042EA06056D42984161F102
:1019B00000010DE062FA06F5F240554063FA06FCBC
:1019C00082EA0C02F3405A406D42904161EB030100
:1019D00011F4801F05D1641E620502D06D004041E4
:1019E000494121F48011430875F1004350F1000092
:1019F00041EB0451F0BC70471CEB410F15D223F0B2
:101A0000004352EA43060BD04FEA4C0CBCEB410FAB
:101A100004D80C0D661E342EB7DDEBE7801A994111
:101A200050EA410608BF0021E4E708BF1CEB430F62
:101A300028BF6FF00001DDE7B0B581EA030C0CF0C0
:101A4000004C40F2FF7515EA11541DBF15EA1357FB
:101A5000AC42AF4239E0E41923EA455343F4801322
:101A6000C90241F0004141EA505EC7021100A7FBE4
:101A7000020200284FF00000EEFB01204FF00001B1
:101A8000E3FB072118BF42F0010240180021494141
:101A9000E3FB0E01A4F580640F0302D25200404123
:101AA000494154F101046CDD470872F1004250F1E4
:101AB000000051EB0451A1F580115CBF41EA0C011B
:101AC000B0BD4CEA05510020B0BD05EA1357AC4249
:101AD00014BFAF4241E050EA410E1CBF52EA430E30
:101AE00002E061460020B0BD24423C441BD15FEAC5
:101AF000070EF6D0090302BF01460020AEF1140E16
:101B0000B1FA81F7AEEB070401FA07FE0C37C7F113
:101B1000200100FA07F7C8404EEA000E23EA4553B9
:101B200043F48013A2E733F00043B3FA83F704BF12
:101B3000B2FA82FE77440B3FE41BB7F1200E2FBFB1
:101B400002FA0EF3BB40C7F1200E22FA0EFE38BF98
:101B500043EA0E03BA40641C82E750EA410E14BF08
:101B600052EA430E6FF000014FF4001717EB430FDA
:101B70008ABF194617EB410FB5E74CEA0551002023
:101B8000B0BDD4F10104B4F120070FDAC4F120078D
:101B9000520828BF42F0010210FA07F501FA07F7D0
:101BA000E1BF2A43E0403843E1400FE0352C98DCA8
:101BB000C7F1200452EA400220FA07F218BF42F0AF
:101BC000010231FA07F0A1400A43002172F10042FC
:101BD00050F1000051EB0C01B0BD00002DE9F041C7
:101BE00040F2FF7581EA030C0CF0004C15EA115429
:101BF0001DBF15EA1357AC42AF42E9E0BC41C1F347
:101C00001301C3F31303801A994143F4801304D2E0
:101C1000641E4000494180185941C90241EA5051AF
:101C2000B1FBF3F603FB1611A2FB0675D7EBC02040
:101C3000A94102D2761E80185941C90241EA505189
:101C4000B1FBF3FE03FB1E11A2FB0E75D7EBC02008
:101C5000A94103D2AEF1010E80185941890241EA2F
:101C60009051760546EA8E2EB1FBF3F603FB161172
:101C7000A2FB0675D7EB8020A94102D2761E801800
:101C80005941C90241EA50514EEA060EB1FBF3F642
:101C900003FB1611A2FB0675D7EBC020A94102D2A7
:101CA000761E80185941C90241EA5051B1FBF3F741
:101CB00003FB1711A2FB0735D3EBC020A94167F145
:101CC00000070CBF004247F0010766F3D5274FEA33
:101CD0001E31B80814F5806414DDBD0775F10042AB
:101CE00050EB0E5051EB045111F5801F5CBF41EADF
:101CF0000C01BDE8F0814CF07F6141F0E041002033
:101D0000BDE8F081BD076D0840EA0E5041F4801136
:101D1000D4F10104B4F120060ADAC4F1200602006D
:101D2000E04001FA06F3E1401843B24015430EE0EB
:101D3000342C14DCC6F1200445EA40056D0820FA75
:101D400006F2154321FA06F0A1400D43002175F17A
:101D5000004250F1000051EB0C01BDE8F081002081
:101D60005FEA0C01BDE8F081CFB992185B41B3FA8C
:101D700083F704BFB2FA82F6BF190B3FB7F1200612
:101D80002FBF02FA06F3BB40C7F1200622FA06F67F
:101D900038BF3343BA401CB1E419641E2FE77F42B9
:101DA00031F00041B1FA81F404BFB0FA80F6A41911
:101DB0000B3CB4F120062FBF00FA06F1A140C4F19C
:101DC000200620FA06F638BF3143A0403C1B16E738
:101DD000AC421ABF05EA1357AF4214E050EA41067D
:101DE0001CBF52EA4306BFE750EA4107304661464E
:101DF0001CBF41EA0551BDE8F08152EA430C08BF1F
:101E0000C143BDE8F08100204FF4001616EB410FEE
:101E100098BF16EB430F08BF16EB410F24BFC14319
:101E200005E016EB430F0CBF61464CEA0551BDE8D7
:101E3000F081000080B5134800F0F6F80FF24C0274
:101E40000FF244010160426241600FF2440282637A
:101E500081600FF24402C160016141618161816270
:101E6000C16201634163C2630164416401BD10B595
:101E7000044800F0D9F80446206808B9FFF7DAFFF3
:101E8000204610BD00000020000000002E000000D1
:101E900066616C7365000000747275650000000077
:101EA00091FBF2F303FB1211C0E90031704700000F
:101EB00080B5DFF80C0000F0B7F8806902BD0000C3
:101EC0009000002030B430B90FF24800D0E900454E
:101ED000C2E900451BE00170012030BC704730B4FE
:101EE00031B90FF23800D0E90045C3E900450EE0F2
:101EF0001AB930BC6FF00100704708B10A7802804F
:101F00000978481E804130BCC043C00F7047002094
:101F100030BC70470000000000000000000000001E
:101F2000000000000749086808B100207047064813
:101F3000C008C00008600549C908C900091A016045
:101F4000704700BF740300208723002080430020D7
:101F500070470000841A71EB030603D2001BB141E5
:101F6000121973414FF4001C1CEB410F34BF7CEB82
:101F7000430443E00C0DA4EB1356352E50DC45EA28
:101F8000C323DB0A45EAC121C912B6F120050DDDE4
:101F900063FA05F6EB4086EA0305124218BF45F0E6
:101FA0000105C01851F100010CD213E062FA06F5E8
:101FB000F2405540F3415A40B340F3405A40801834
:101FC000594107D349085FEA30005FEA350528BF69
:101FD00045F0010501F58011420875F1004250F10C
:101FE000000041EB0451F0BC4FF4001C1CEB410F0E
:101FF00038BF70470020090D090570471CEB410FE1
:1020000010D252EA43060BD0BCEB410F05D80C0DA1
:10201000AB43661E342EB5DD02E0AB438018594158
:10202000F0BC7047F0BC70477047000010B504006A
:102030000DE0217889B2DFF8A00800F007FD8021CB
:10204000DFF8940800F033FD0028F8D0641C2078F5
:102050000028EED110BD80B540F22551DFF8780898
:1020600000F032FD00280AD0DFF86C0800F0F2FC26
:10207000DFF86C1808700120DFF86818087001BDDF
:1020800080B540F22551DFF8540800F01DFD00280E
:102090000AD0DFF8480800F0DDFCDFF84C180870C3
:1020A0000120DFF84818087001BD10B50400802138
:1020B000DFF8280800F0FBFC0028F8D02000010021
:1020C00089B2DFF8180800F0C1FC200010BD80B50F
:1020D0000121DFF81C0800F0C9FD002844D00121CF
:1020E000DFF80C0800F0D6FDDFF808080068401C97
:1020F000DFF800180860DFF8FC070068C00706D4A6
:10210000DFF8F4070068401CDFF8EC170860DFF820
:10211000E4070068B0F5FA7F26D30020DFF8D41773
:102120000860DFF8D8070068401CDFF8D0170860A7
:10213000DFF8CC070068012816D1DFF8C80700686F
:10214000401CDFF8C0170860DFF8B80700680628F1
:1021500003DB0020DFF8AC170860DFF8A007006899
:10216000401CDFF89817086001BD80B50121DFF839
:10217000980700F07BFD002804D00121DFF88807D4
:1021800000F088FD01BD80B540F20521DFF87C0735
:1021900000F04FFE002809D040F20521DFF86C075F
:1021A00000F060FE0120DFF86817086001BD80B50F
:1021B0004FF4006000F0A1FE002807D00120DFF8F6
:1021C000541708604FF4006000F0A2FE4FF48050F6
:1021D00000F093FE002807D00220DFF838170860CF
:1021E0004FF4805000F094FE01BD000010B5D0B057
:1021F0001EA8642100F09AFE37A8642100F096FE24
:1022000006A8142100F092FE00F04AFF00F040FF03
:10221000342000F09FFE40F2FF4000F0C4FEDFF8E3
:10222000F806DFF8F81608608020DFF8F01648603E
:10223000DFF8E8060FC801F005F800208DF814005B
:1022400003208DF8150000208DF817004FF4C050C2
:10225000049004A9DFF8C80601F0F4F80F2100206B
:1022600001F088F94FF4C050129000208DF84C0016
:1022700008208DF84D0001208DF84E0012A800F0C6
:10228000F9FD28208DF80C0001208DF80D000120AB
:102290008DF80E0001208DF80F0003A801F099F9C8
:1022A0000121072001F03EFA0121102001F05AFA25
:1022B00001215FF4003001F045FA0121202001F0F6
:1022C00041FA01214FF4807001F04CFA01208DF8A1
:1022D000140000208DF8160000208DF8170040F63D
:1022E000FF70049004A9DFF83C0601F0ABF84FF44E
:1022F0007F40049004A9DFF8200601F0A3F8022033
:102300008DF8140000208DF8160003208DF81500BC
:1023100001208DF817000C20049004A9DFF80006B6
:1023200001F090F807220221DFF8F40501F0F9F836
:1023300007220321DFF8E80501F0F3F84FF4C0604D
:10234000049004A9DFF8D80501F07CF807220921E0
:10235000DFF8CC0501F0E5F807220A21DFF8C00517
:1023600001F0DFF84FF4A06001F02EF919208DF88C
:102370000C0001208DF80D0001208DF80E000120C9
:102380008DF80F0003A801F024F94FF4A06001F0CC
:102390001BF925208DF80C0001208DF80D0001207F
:1023A0008DF80E0001208DF80F0003A801F011F93F
:1023B00026208DF80C0003A801F00BF937208DF8CA
:1023C0000C0003A801F005F912208DF80C0003A8F9
:1023D00001F0FFF85320ADF82C0040F2CF700C90C4
:1023E0000020ADF834000020ADF82E000BA9DFF876
:1023F000000500F09BFB0121DFF8F40400F04AFC2B
:1024000001220121DFF8E80400F024FC0121DFF8BB
:10241000E00400F0BFFBA720ADF82C0044F22350ED
:102420000C900020ADF834000020ADF82E000BA970
:10243000DFF8D40400F07AFB0321DFF8CC0400F0CD
:1024400029FC01220321DFF8C00400F003FC012174
:10245000DFF8B40400F09EFB5FF4E1300E90002042
:10246000ADF83C000020ADF83E000020ADF8400083
:102470000020ADF844000C20ADF842000EA9DFF8B2
:102480005C0400F073FA012240F22551DFF84C049D
:1024900000F0E4FA0121DFF8440400F0C9FA5FF427
:1024A000E1300E900020ADF83C000020ADF83E0079
:1024B0000020ADF840000020ADF844000C20ADF83D
:1024C00042000EA9DFF8100400F050FA012240F299
:1024D0002551DFF8040400F0C1FA0121DFF8F80308
:1024E00000F0A6FA0120049003208DF814000020CB
:1024F0008DF8170004A9DFF8280400F0A3FF0020DE
:10250000149000201590002016900020179014A819
:1025100000F0E9FB0020189000208DF864000020F6
:102520008DF8650000201A9000201B9000201C9060
:1025300001208DF8740018A9DFF8D00300F0AEFB7D
:10254000002301220021DFF8C40300F0E9FB01228F
:1025500040F20521DFF8B40300F05AFC0121DFF856
:10256000AC0300F0D0FBDFF8A40300F043FC01F063
:1025700019F9DFF8B4131EA801F050FA1EA801F0F3
:10258000D3F903E0DFF8A40301F062FADFF8700387
:102590000068012804D1DFF86C03006800F0D1FD69
:1025A000DFF8780300F083FE00284AD0DFF86C03E0
:1025B000C07A0090DFF86403837ADFF86003427A20
:1025C000DFF85803017ADFF8680301F041FADFF819
:1025D0004C03807A292818DBC9480068002814D1E8
:1025E000B7A00090D34BD44AD4491EA801F016FAE4
:1025F0001EA801F099F91EA801F02AFAB1A001F075
:1026000027FA0120BE4908601BE0C448807A2728C9
:1026100017DABB480068012813D1ABA00090C54B66
:10262000C54AC6491EA801F0F9F91EA801F07CF9B7
:102630001EA801F00DFAA3A001F00AFA0020B0498B
:102640000860B4480068012814D19DA00090B94BDF
:10265000B94ABA491EA801F0E1F91EA801F064F9CF
:102660001EA801F0F5F997A001F0F2F95FF0FF3034
:10267000A8490860A7480068022814D192A00090D9
:10268000AC4BAD4AAD491EA801F0C8F91EA801F037
:102690004BF91EA801F0DCF98AA001F0D9F95FF02E
:1026A000FF309C49086000208DF8DC000A22A44914
:1026B000A34801F0D3F8002829D0002425E0042203
:1026C0009F49A048642303FB040001F0D3F90028CC
:1026D0001AD19C48642101FB040010F1080137A8BD
:1026E00001F0DCF99748642101FB04000830FEF793
:1026F0001DFE37A94018002100F8011C37A801F081
:10270000A7F970A001F0A4F9641C052CD7DB9DF893
:10271000DC0000283FF43AAF6CA137A801F0E0F9E3
:10272000002403E069A1002001F0DAF9002806D0B6
:1027300006A941F824002000441C0528F2DB0722EA
:102740008149079801F096F900283FF41BAF072252
:102750007E49079801F08EF900280CD17C4801F0E1
:1027600077F901F01FF870491EA801F057F91EA86B
:1027700001F0DAF80AE7032255A1079801F07AF987
:1027800000282AD102224EA1089801F073F90028EE
:102790000DD14FF48071604800F0BCFE08980090A5
:1027A000079B069A65491EA801F038F9EEE6032258
:1027B00045A1089801F05EF900287FF4E7AE4FF4D8
:1027C0008071554800F0A8FE08980090079B069A73
:1027D0005A491EA801F022F9D8E604225D4907985B
:1027E00001F048F900282AD1022235A1089801F009
:1027F00041F900280DD14FF40071474800F08AFEDE
:1028000008980090079B069A4C491EA801F006F90B
:10281000BCE603222CA1089801F02CF900287FF4D3
:10282000B5AE4FF400713C4800F076FE0898009079
:10283000079B069A41491EA801F0F0F8A6E6082277
:102840004549079801F016F9002822D1032221A159
:10285000089801F00FF900287FF498AE4FF400714A
:102860002D4800F04CFE002801D015A400E016A46D
:102870004FF48071284800F042FE002801D010A3D8
:1028800000E011A30094069A34491EA801F0C6F88E
:102890007CE609223249079801F0ECF800287FF421
:1028A00075AE322002901548006801902D480088CE
:1028B0000090079B069A2C491EA801F0AFF865E628
:1028C0004F4E00000D0A00004F4646005B405D0081
:1028D0004C4544004445560000100140004400406F
:1028E0007A0300207B0300207C0300207D0300206E
:1028F000001400405C030020580300206003002007
:10290000680300206C0300200044014000200140C7
:10291000640300203C010020000402403803002032
:1029200000000240000802400C400008A4400008DB
:102930001C400008244100081C4100088C4000088D
:102940002C4100084401002098400008B0400008D5
:10295000BC40000834410008C84000082C40000872
:10296000D440000878030020D03F000830B585B07F
:1029700004000D000020002000210021A88900286B
:10298000208A30F44050E98808432082A0892749F2
:102990000840A9882A8911436A8911430843A08104
:1029A000A08A30F44070A9890843A082684600F0EC
:1029B0004BFE1C48844202D01B48844201D103983C
:1029C00000E00298A189090406D519214843296825
:1029D0004900B0FBF1F105E019214843296889005D
:1029E000B0FBF1F16420B1FBF0F0000102096423B7
:1029F00003FB1211A289120408D5C90032316422E6
:102A0000B1FBF2F111F00701084307E0090132318F
:102A10006422B1FBF2F111F00F010843208105B0EF
:102A200030BD00000010014000140140F3E9FFFF39
:102A3000C9B2002904D0818951F40051818104E098
:102A400081894DF6FF72114081817047C905C90D1A
:102A5000818070478088C005C00D704730B4002366
:102A600000240024002589B240F66A13994205002B
:102A70000800C0B24309DBB289B211F01F04012083
:102A800010FA04F4012B01D10C3504E0022B01D122
:102A9000103500E01435D2B2002A03D02868204354
:102AA000286002E02868A043286030BC70470022FC
:102AB00089B2B1F5007F0088084201D0012200E010
:102AC00000221000C0B2704710B400220023002280
:102AD000002289B240F66A1291420A00D2B252092B
:102AE000D2B289B211F01F03012414FA03F3012AB0
:102AF00002D18289134006E0022A02D1028A1340E1
:102B000001E0828A134089B20A0A92B2012111FAC5
:102B100002F200880240002B03D0002A01D00122DB
:102B200000E000221000C0B210BC704700220288F2
:102B3000414B98420ED0464B98420BD0B0F1804F9B
:102B400008D03E4B984205D03D4B984202D03D4BB9
:102B5000984204D14FF68F731A404B881A433A4B70
:102B6000984207D0394B984204D04FF6FF431A40A1
:102B70000B891A4302804A68C2620A8802852E4A7B
:102B8000904202D0324A904201D1897A01860121D5
:102B900081827047C9B2002904D0018851F0010137
:102BA000018004E001884FF6FE72114001807047F9
:102BB00030B4002300240022028C4FF6EF731A4039
:102BC0000284048C8288038B48F6FF752B404FF6F5
:102BD000FF452B400D8853EA05234FF6DF752C4047
:102BE0008D8954EA05144D8854EA0514124DA84203
:102BF00002D0174DA84217D14FF67F752C40CD89D2
:102C000054EA05144FF6BF752C408D8854EA05141C
:102C10004FF6FF352A404FF2FF752A400D8A52EADF
:102C200085024D8A52EA8502828003838968816326
:102C3000048430BC704700000000014000040040E4
:102C400000080040000C004000100040001400404C
:102C500000040140D2B2002A03D08289114381814D
:102C600003E0828932EA010181817047002200225B
:102C70000023028A0A40808911EA000392B2002AE6
:102C800004D09BB2002B01D0012200E000221000F2
:102C9000C0B2704789B2C9430182704730B4002383
:102CA00000224368564C23400C790D6855EA0424F1
:102CB000234343608368534C23400C69CD682C4305
:102CC0008D682C434D7954EA450423438360C36ADD
:102CD00033F47003097D491E0A43D2B253EA02530A
:102CE000C36230BC7047002147490968474A114018
:102CF000026843681A4383681A43C068104301435B
:102D0000414801607047C9B2002904D0816851F080
:102D10000101816003E081684908490081607047D2
:102D2000F0B400240025C9B20A2913DBC4680725C2
:102D3000B1F10A06032716FB07F6B540AC43DBB238
:102D4000B1F10A05032615FB06F513FA05F52C4328
:102D5000C4600EE004690725032611FB06F6B540A2
:102D6000AC43DBB2032511FB05F513FA05F52C4343
:102D70000461D2B2072A12DA446B1F23551E0526BE
:102D800015FB06F513FA05F5AC43C9B2521E05232F
:102D900012FB03F211FA02F52C43446328E0D2B28D
:102DA0000D2A12DA046B1F23D51F052615FB06F525
:102DB00013FA05F5AC43C9B2D21F052312FB03F287
:102DC00011FA02F52C43046312E0C46A1F23B2F126
:102DD0000D05052615FB06F513FA05F5AC43C9B23A
:102DE0000D3A052312FB03F211FA02F52C43C462DB
:102DF000F0BC7047816851F08041816070470000ED
:102E0000FFFEFFFCFDF7FFC004230140E030FCFFA4
:102E10000023C9B20B00012111FA03F3D2B2002A38
:102E200003D041681943416002E041689943416021
:102E3000704710B40022002200230A0092B2120A46
:102E400092B24368012414FA01F10B400068104269
:102E500003D0002B01D0012200E000221000C0B2FC
:102E600010BC7047002289B20A0AD2B2D143016075
:102E700070470000002128498279002A35D0264A6F
:102E8000126803689A43244B1A60244A1268036844
:102E90009A43224B1A60027989180A6803681A4318
:102EA0000A601F490968026891431D4A11601D4963
:102EB0000968026891431B4A1160417910290CD1BD
:102EC0001749096802681143154A116015490968D4
:102ED00000680843134908600EE00F4942798918D9
:102EE0000A6800681043086006E0027989180A68D9
:102EF000006832EA00000860704700210A4909684A
:102F0000014201D0012100E000210800C0B2704759
:102F10000549086070470000003C0140043C014046
:102F2000083C01400C3C0140143C0140002200F0F0
:102F3000FDBD000081B00021009144F2A011484382
:102F4000009002E00098401E009000980028F9D1FF
:102F500001B0704738B5040000250421B04800F0E6
:102F6000D9FA00250DE00121AD4800F0D5FA022183
:102F7000AB4800F0D1FA0221A94800F0CBFA64086E
:102F80006D1C102D06D2E007EDD50121A44800F0FC
:102F9000C1FAECE70221A24800F0BEFA0421A048E1
:102FA00000F0BAFA31BD38B5040004219C4800F0A5
:102FB000B3FA00250DE00121994800F0ADFA022195
:102FC000974800F0A9FA0221954800F0A3FA640896
:102FD0006D1C102D06D2E007EDD50121904800F0C0
:102FE00099FAECE702218E4800F096FA04218C4809
:102FF00000F090FA04218A4800F08EFA31BD10B535
:1030000000240421864800F085FA0121844800F05C
:1030100083FA002408E00221814800F07DFA0221B1
:103020007F4800F077FA641C092CF4D304217C4813
:1030300000F072FA04217A4800F06CFA0421784812
:1030400000F06AFA0421764800F064FA042174481A
:1030500000F062FA0221724800F05EFA10BD70B50D
:10306000040001268420FFF775FF002504E00020FE
:10307000FFF799FF76006D1C102D06D23442F6D072
:103080004FF6FF70FFF78FFFF4E7FFF7B8FF70BD53
:1030900080B50120FFF75EFF6420FFF74BFF01BD05
:1030A00000B58BB00121062000F03CFB012102207D
:1030B00000F048FB01208DF8040000208DF8060088
:1030C00003208DF8050000208DF80700FF200090F8
:1030D0006946544800F0B6F9072000906946504808
:1030E00000F0B0F902208DF804002020009069461D
:1030F0004B4800F0A7F902220521494800F011FAD7
:103100000020ADF80800292003900020ADF8100041
:103110000020ADF80A0002A94348FFF707FD602030
:10312000ADF814000120ADF816001520079005A990
:103130003D48FFF73DFD01213B48FFF72BFD0BB05C
:1031400000BD10B5002400280FD10024082C66DA39
:103150003648205CFFF783FF0120A040010089B2C0
:10316000304800F0DBF9641CF0E701280FD100249F
:10317000082C54DA2E48205CFFF771FF0120A04094
:10318000010089B2274800F0C9F9641CF0E7022861
:103190000FD10024082C42DA2648205CFFF75FFF9D
:1031A0000120A040010089B21E4800F0B7F9641C5C
:1031B000F0E703280FD10024082C30DA1E48205CE9
:1031C000FFF74DFF0120A040010089B2154800F033
:1031D000A5F9641CF0E704280FD10024082C1EDA9E
:1031E0001648205CFFF73BFF0120A040010089B298
:1031F0000C4800F093F9641CF0E705280FD1002477
:103200000BE00F48205CFFF72AFF0120A0400100DF
:1032100089B2044800F082F9641C082CF1DB10BD6F
:103220000004024000080240000400400C0100209D
:10323000140100201C010020240100202C0100208A
:10324000340100200FB585B06B48009080200190BC
:1032500005986A49884204D10121012000F062FAF0
:1032600010E005986449884204D10121022000F051
:1032700059FA07E005986249884203D101210420E8
:1032800000F050FA01205F49087100205D49887103
:1032900003205C49487100205A49C8710698594971
:1032A00008605849059800F0CDF809B000BD2DE937
:1032B000F84304000020002501265FF000080120EB
:1032C0005049087160684F4908604E49206800F015
:1032D000B9F8616889B2206800F01CF9FA2000F0A2
:1032E00093F800202073E072A0726072207261680F
:1032F00089B2206800F010F9142000F085F86168A8
:1033000089B2206800F006F91E2000F08DF8002038
:103310003C49087160683B4908603A49206800F000
:1033200091F800272CE0FFB2042F28DBFFB2022027
:1033300097FBF0F101FB1071002920D1EDB20820BC
:1033400095FBF0F00019EDB2082195FBF1F1091998
:10335000097A490001721FFA88F8B8F1070F0DDBEE
:10336000EDB2082095FBF0F00019EDB2082195FBB5
:10337000F1F10919097A51F0010101726D1C7F1CEC
:10338000FFB2552F24DA5FF00008616889B2206827
:1033900000F0AAF88146032000F046F85FFA89F9A8
:1033A000F6B2B14509D118F10108012000F03CF84E
:1033B0001FFA88F8B8F1FF0FE7D1616889B2206879
:1033C00000F092F806001FFA88F8B8F1FF0FAAD1B2
:1033D000207A617A0818A17A0818E17A0818EDB203
:1033E000282D05DB217BC0B2814201D1012000E004
:1033F0000020BDE8F283000000040240000002400B
:10340000000802404803002081B00021009144F2EE
:10341000A0114843009002E00098401E00900098E0
:103420000028F9D101B0704781B00021009100015E
:10343000009002E00098401E009000980028F9D10A
:1034400001B0704730B4002200230024002247E07E
:10345000012393400C681C409C4240D10368032424
:103460001500EDB26D00AC40A343036003680C7916
:103470001500EDB26D00AC40234303600B79012BC6
:1034800002D00B79022B1AD1836803241500EDB208
:103490006D00AC40A343836083684C791500EDB2A6
:1034A0006D00AC4023438360436801249440A343F0
:1034B000436043688C799440A4B223434360C3685B
:1034C00003241500EDB26D00AC40A343C360C36894
:1034D000CC791500EDB26D00AC402343C360521CA3
:1034E000102AB5D330BC70470022006989B2084267
:1034F00001D0012200E000221000C0B2704700227B
:10350000406989B2084201D0012200E00022100087
:10351000C0B27047018370474183704789B24161EF
:10352000704770B400230023D2B211F00703DBB25E
:103530009B0012FA03F389B2CA1010EB820289B21F
:10354000CC1010EB8404246A0F2511F00706F6B2A4
:10355000B600B540AC43146289B2CA1010EB8202C7
:10356000126A134389B2C91010EB8100036270BC68
:103570007047000010B400220F2211F00303DBB2E9
:103580009B009A400F4BC9B28C1053F8243033EA99
:1035900002020C4BC9B28C1043F82420094AC9B26C
:1035A0008B1052F82320C0B211F00303DBB29B0052
:1035B00098401043034AC9B2891042F8210010BC58
:1035C00070470000083801401A4908431A4908604A
:1035D0007047002100220F23C17800291ED0164910
:1035E000096811F4E061D1F5E061090AD1F1040242
:1035F000DBB20B414178914082781A4011430901B6
:103600000E4A037899540121027812F01F0291406A
:103610000B4A0078401142F8201009E0012102789D
:1036200012F01F029140074A0078401142F8201022
:10363000704700000000FA050CED00E000E400E037
:1036400000E100E080E100E00021002100210222F1
:1036500000210222DFF82C11096811F00C01002969
:1036600004D0042906D0082908D033E0DFF81C1163
:10367000016032E0DFF8181101602EE0DFF8081178
:103680000968C1F38051DFF80021126812F03F028F
:1036900000290AD0DFF8F810B1FBF2F1DFF8E820DA
:1036A0001268C2F38812514309E0DFF8E010B1FB61
:1036B000F2F1DFF8D4201268C2F388125143DFF828
:1036C000C8201268C2F30142521C5200B1FBF2F151
:1036D000016002E0DFF8B4100160DFF8A8100968AB
:1036E00011F0F0010909DFF8AC20895C0268CA40DA
:1036F0004260DFF89010096811F4E051890ADFF8A0
:103700009420895C4268CA408260DFF878100968BA
:1037100011F46041490BDFF87C20895C4268CA40A3
:10372000C2607047C9B2002905D01B490968084327
:103730001949086005E01849096831EA000016498E
:1037400008607047C9B2002905D0144909680843C8
:103750001249086005E01149096831EA00000F4983
:1037600008607047C9B2002905D00D4909680843AF
:103770000B49086005E00A49096831EA0000084978
:103780000860704708380240043802400024F40002
:1037900000127A00FC00002030380240403802401D
:1037A0004438024010B5854800F052F98C2280A1BF
:1037B000834800F042F8002802D1824800F048F91E
:1037C000002400E0641C052C06DA00F018F800283C
:1037D000F8D07D4800F03CF9052C04D17B4800F07E
:1037E00037F900200AE08C2279497A4800F025F860
:1037F0008C226FA1784800F020F8012010BD00B5A0
:103800008DB068463421FFF791FB8C2268A1734884
:1038100000F013F8724B734A7349684600F0FEF8E3
:103820004FF47A7262A1684600F007F8002801D0D0
:10383000012000E000200DB000BD70B504000D00B7
:10384000160000202000FEF7F1FB5AA0FEF7EEFB69
:1038500032002900200000F001F870BD2DE9F0478A
:103860000C0015005FF00009002600275F48D0F823
:1038700000805FF000094FF4FA710022DFF870A1B8
:10388000504600F06DF9FFE758480068B0EB0800BB
:10389000A84245D2574800780028F5D0554800780E
:1038A00001280CD1544807785148642101FB0600D7
:1038B00009F8007000204F49087019F10109FFB2A2
:1038C0000A2FE1D100204A49642202FB061109F8BF
:1038D00001002000FDF72AFD020021004448642376
:1038E00003FB060000F0C6F8002814D10322434968
:1038F0003F48642303FB060000F0BCF8002808D111
:103900003B48642101FB060010F10D013C4800F02A
:103910009FF8012005E05FF00009761C052E02D11A
:103920000020BDE8F087AFE710B59EB00400684600
:103930007821FFF7FBFA3348006800281CD141F2D8
:103940008833314A3149684600F068F84FF48C7288
:103950002F496846FFF771FF002803D0012029494D
:10396000086009E08C222B496846FFF766FF0028B3
:1039700002D00120234908602000FDF7D7FC020097
:103980002549684600F04AF88C2209A16846FFF7ED
:1039900054FF8C2208A12000FFF74FFF002802D11E
:1039A000002018490860174800681EB010BD0000CC
:1039B0004F4B00000D0A00003E000000883F000849
:1039C0003C410008043F0008203F0008A03F0008D9
:1039D000E43F0008E0400008EC400008F840000820
:1039E0000441000844410008F83F00085803002043
:1039F000440100207B0300207A0300203C400008A3
:103A00004C400008700300205C4000083C3F000868
:103A10004C410008544100086C4000080CB41CB52F
:103A2000044604A801900A46009401AB6946074881
:103A300078441830FCF7A8FB009A00211170002888
:103A40005CBF0098001B16BC5DF80CFBD7D8FFFFCD
:103A50000EB400B582B003A9009102466B46012165
:103A6000034878440A30FCF78FFB06BC5DF810FB76
:103A70004905000001E0491C521E6AB10B7890F81C
:103A800000C09C4504D034BF4FF0FF300120704788
:103A900010F8013B002BEED1002070475FEA000CCC
:103AA000830706D011F8013B00F8013BB3B183074F
:103AB000F8D10A68B2F1013323EA020313F0803F20
:103AC00002BF40F8042B51F8042FF3E711F8013B33
:103AD00000F8013B13B111F8013BF9E7604670476C
:103AE00070B504460D461048FEF79EFA064644B1EE
:103AF0002946204600F067F80419207830B9306074
:103B000070BD3468002CF3D1002070BD29462046DA
:103B100000F06AF80019017811B1002100F8011BCA
:103B20003060204670BD00BF4001002000B500BFDE
:103B3000130096469446103928BFA0E80C50FAD8D6
:103B40005FEA417C28BF0CC048BF40F8042BC9077E
:103B500028BF20F8022B48BF00F8012B00BD000051
:103B600062F30F2262F31F42401810F0030308D0E3
:103B7000C91A1FD3DB0748BF00F8012D28BF20F862
:103B8000022D130030B414461546103928BF20E921
:103B90003C00FAD8490728BF20E90C0048BF40F88C
:103BA000042D890028BF20F8022D48BF00F8012D00
:103BB00030BC7047C91818BF00F8012DCB0728BFCB
:103BC00000F8012D704730B4024604E014F8015BA0
:103BD000AB4203D1521C13781BB10C462578002D43
:103BE000F4D130BC101A704730B4024600E0521CC9
:103BF00013783BB10C462578002DF8D014F8015B02
:103C0000AB42F8D130BC101A7047000080B548486C
:103C1000006850F47000464908604648006850F05B
:103C20000100444908600020434908604148006899
:103C3000424908403F4908604148424908603D48C0
:103C4000006830F480203B49086000203E4908604D
:103C500000F005F85FF000603C49086001BD82B0EB
:103C600000200190002000903248006850F480301D
:103C7000304908602F48006810F400300090019827
:103C8000401C01900098002803D10198B0F5A04F86
:103C9000F0D128480068800302D50120009001E09F
:103CA00000200090009801283ED12948006850F07B
:103CB0008050274908602748006850F44040254953
:103CC00008601D4800681C4908601B48006850F4E3
:103CD0000040194908601848006850F4A05016497F
:103CE00008601D48174908601248006850F080704D
:103CF000104908600F4800688001FBD540F205704C
:103D0000164908600C480068800880000A4908606D
:103D10000948006850F0020007490860064800683A
:103D200010F00C000828F9D102B070470000000024
:103D300088ED00E00038024008380240FFFFF6FE40
:103D400010300024043802400C38024008ED00E036
:103D5000403802400070004008544007003C0240D8
:103D6000816807E002681168536889185B18C360AE
:103D700008320260C2689142F4D04A1C826008781E
:103D800070472DE9FF4D00F10801009100270268FE
:103D9000520801EBC2010191B84600210291039142
:103DA0000168490800EBC101406800F0010501F11C
:103DB0000804400804EBC00630E06846FFF7D0FF77
:103DC0004FFA80FA0AE000980168081800990290FA
:103DD00049680818039000980830009002980399E9
:103DE0008842F0D010F801BB029047450CD1B44294
:103DF00008BF00F01DF8276805B14F44606800EB6C
:103E0000070808344745F2D0BAF1000F07F801BBA4
:103E10000AD51AF1010AE8D14745CED1B442CCD136
:103E2000304604B0BDE8F08DBAF1010AD6D5F3E70B
:103E3000012000F001B8000080B5C046C046024A2B
:103E400011001820ABBEFBE72600020019E050F875
:103E5000041BCB0744BFA9F101035918121F00230B
:103E6000042A41F8043BF9D25FEA827C0B4604D570
:103E70004FF0000CA1F800C09B1CD10744BF0021EB
:103E8000197050F8042B002AE1D1704710B507498A
:103E900079441831064C7C44163404E00A68081D45
:103EA000511888470146A142F8D110BD2C000000EE
:103EB000540000004EF68851CEF20001086840F42C
:103EC00070000860BFF34F8FBFF36F8F4FF000702B
:103ED000E1EE100A7047000075FFFFFF3C02000092
:103EE00044010020000000009BFEFFFF02000000D4
:103EF00002000000980300004900000000000020BC
:103F0000440100004D6F64756C6520686176652022
:103F10006E6F20726573706F6E73652E0D0A0000F0
:103F20004F4B2C20436F6E6E656374656420746F15
:103F300020576946692E0D0A0000000041542B43AA
:103F4000495053544152543D22544350222C22256F
:103F500073222C256400000000F00BF8002801D02B
:103F6000FFF794FF0020C046C046FEF73FF900F07F
:103F700002F80120704700F001B8000007463846FB
:103F8000FFF75AFFFBE7000057696669204D6F6431
:103F9000756C65205265737461727421210D0A007D
:103FA0005769666920636F6E6E6563742066616928
:103FB0006C2E0D0A0000000038B504460D46284658
:103FC000FEF773F8A84218BF0024204632BD000057
:103FD0005B25735D257340257540256C7540256410
:103FE0000A0000002B43494653523A53544149506A
:103FF0002C2231393200000041542B43574A4150A2
:104000003D222573222C2225732200005B4B534A4C
:104010005F4D343A5041535357445D002564202589
:10402000642025642025640D0A0000005B25735D73
:104030004445564025734025730A00002B434946EA
:1040400053523A5354414950000000004C6F636191
:104050006C204950203A2025730A00003139322E55
:104060003136382E31302E343500000041542B4388
:10407000495053454E443D256400000001488047A7
:10408000014800470D3C0008114100085B25735DA5
:1040900025734025730A0000204E657720636F6EFC
:1040A000000000005445535430310D0A0000000058
:1040B00020416C72656164790000000054455354DE
:1040C00030320D0A00000000474554535441544516
:1040D0000000000047455453454E534F5200000026
:1040E00041542B43494653520000000041542B4396
:1040F00049504D55583D300041542B43574D4F4486
:10410000453D3100697074696D65303030000000E4
:10411000C046C046FFF7CEFEFFF71EFF594A4A5F72
:104120004D34000046495245000000002B495044E0
:10413000000000004C414D500000000041542B5243
:1041400053540000656D623130000000434F4E4E05
:1041500045435400414C524541445900FFF7FEBFCE
:10416000FFF7FEBFFFF7FEBFFFF7FEBFFFF7FEBF83
:10417000FFF7FEBFFFF7FEBFFFF7FEBFFFF7FEBF73
:10418000FFF7FEBFFFF7FEBFFFF7FEBFFFF7FEBF63
:10419000FFF7FEBFFFF7FEBFFFF7FEBFFFF7FEBF53
:1041A000FFF7FEBFFFF7FEBFFFF7FEBFFFF7FEBF43
:1041B000FFF7FEBFFFF7FEBFFFF7FEBFFFF7FEBF33
:1041C000FFF7FEBFFFF7FEBFFFF7FEBFFFF7FEBF23
:1041D000FFF7FEBFFFF7FEBFFFF7FEBFFFF7FEBF13
:1041E000FFF7FEBFFFF7FEBFFFF7FEBFFFF7FEBF03
:1041F000FFF7FEBFFFF7FEBFFFF7FEBFFFF7FEBFF3
:10420000FFF7FEBFFFF7FEBFFFF7FEBFFFF7FEBFE2
:10421000FFF7FEBFFFF7FEBFFFF7FEBFFFF7FEBFD2
:10422000FFF7FEBFFFF7FEBFFFF7FEBFFFF7FEBFC2
:10423000FFF7FEBFFFF7FEBFFFF7FEBFFFF7FEBFB2
:10424000FFF7FEBFFFF7FEBFFFF7FEBFFFF7FEBFA2
:10425000FFF7FEBFFFF7FEBFFFF7FEBFFFF7FEBF92
:10426000FFF7FEBFFFF7FEBFFFF7FEBFFFF7FEBF82
:10427000FFF7FEBFFFF7FEBFFFF7FEBFFFF7FEBF72
:10428000FFF7FEBFFFF7FEBFFFF7FEBFE400F8FF3A
:10429000DC00FAFF8100CD001D01020304010203CE
:1042A00004060708097E7E027E7E027E7E8142240D
:1042B00018182442817E7EFC18037E7EFFFFFA18C8
:1042C0000F0C2C283F090F2A3A0C0D097F484E2A63
:0542D0003AFCFFFC00B8
:04000005080041119D
:00000001FF
